{
  "_format": "hh-sol-artifact-1",
  "contractName": "TestERC721",
  "sourceName": "contracts/TestERC721.sol",
  "abi": [
    {
      "inputs": [
        {
          "internalType": "address",
          "name": "initialOwner",
          "type": "address"
        }
      ],
      "stateMutability": "nonpayable",
      "type": "constructor"
    },
    {
      "inputs": [
        {
          "internalType": "address",
          "name": "sender",
          "type": "address"
        },
        {
          "internalType": "uint256",
          "name": "tokenId",
          "type": "uint256"
        },
        {
          "internalType": "address",
          "name": "owner",
          "type": "address"
        }
      ],
      "name": "ERC721IncorrectOwner",
      "type": "error"
    },
    {
      "inputs": [
        {
          "internalType": "address",
          "name": "operator",
          "type": "address"
        },
        {
          "internalType": "uint256",
          "name": "tokenId",
          "type": "uint256"
        }
      ],
      "name": "ERC721InsufficientApproval",
      "type": "error"
    },
    {
      "inputs": [
        {
          "internalType": "address",
          "name": "approver",
          "type": "address"
        }
      ],
      "name": "ERC721InvalidApprover",
      "type": "error"
    },
    {
      "inputs": [
        {
          "internalType": "address",
          "name": "operator",
          "type": "address"
        }
      ],
      "name": "ERC721InvalidOperator",
      "type": "error"
    },
    {
      "inputs": [
        {
          "internalType": "address",
          "name": "owner",
          "type": "address"
        }
      ],
      "name": "ERC721InvalidOwner",
      "type": "error"
    },
    {
      "inputs": [
        {
          "internalType": "address",
          "name": "receiver",
          "type": "address"
        }
      ],
      "name": "ERC721InvalidReceiver",
      "type": "error"
    },
    {
      "inputs": [
        {
          "internalType": "address",
          "name": "sender",
          "type": "address"
        }
      ],
      "name": "ERC721InvalidSender",
      "type": "error"
    },
    {
      "inputs": [
        {
          "internalType": "uint256",
          "name": "tokenId",
          "type": "uint256"
        }
      ],
      "name": "ERC721NonexistentToken",
      "type": "error"
    },
    {
      "inputs": [
        {
          "internalType": "address",
          "name": "owner",
          "type": "address"
        }
      ],
      "name": "OwnableInvalidOwner",
      "type": "error"
    },
    {
      "inputs": [
        {
          "internalType": "address",
          "name": "account",
          "type": "address"
        }
      ],
      "name": "OwnableUnauthorizedAccount",
      "type": "error"
    },
    {
      "anonymous": false,
      "inputs": [
        {
          "indexed": true,
          "internalType": "address",
          "name": "owner",
          "type": "address"
        },
        {
          "indexed": true,
          "internalType": "address",
          "name": "approved",
          "type": "address"
        },
        {
          "indexed": true,
          "internalType": "uint256",
          "name": "tokenId",
          "type": "uint256"
        }
      ],
      "name": "Approval",
      "type": "event"
    },
    {
      "anonymous": false,
      "inputs": [
        {
          "indexed": true,
          "internalType": "address",
          "name": "owner",
          "type": "address"
        },
        {
          "indexed": true,
          "internalType": "address",
          "name": "operator",
          "type": "address"
        },
        {
          "indexed": false,
          "internalType": "bool",
          "name": "approved",
          "type": "bool"
        }
      ],
      "name": "ApprovalForAll",
      "type": "event"
    },
    {
      "anonymous": false,
      "inputs": [
        {
          "indexed": false,
          "internalType": "uint256",
          "name": "_fromTokenId",
          "type": "uint256"
        },
        {
          "indexed": false,
          "internalType": "uint256",
          "name": "_toTokenId",
          "type": "uint256"
        }
      ],
      "name": "BatchMetadataUpdate",
      "type": "event"
    },
    {
      "anonymous": false,
      "inputs": [
        {
          "indexed": false,
          "internalType": "uint256",
          "name": "_tokenId",
          "type": "uint256"
        }
      ],
      "name": "MetadataUpdate",
      "type": "event"
    },
    {
      "anonymous": false,
      "inputs": [
        {
          "indexed": true,
          "internalType": "address",
          "name": "previousOwner",
          "type": "address"
        },
        {
          "indexed": true,
          "internalType": "address",
          "name": "newOwner",
          "type": "address"
        }
      ],
      "name": "OwnershipTransferred",
      "type": "event"
    },
    {
      "anonymous": false,
      "inputs": [
        {
          "indexed": true,
          "internalType": "address",
          "name": "from",
          "type": "address"
        },
        {
          "indexed": true,
          "internalType": "address",
          "name": "to",
          "type": "address"
        },
        {
          "indexed": true,
          "internalType": "uint256",
          "name": "tokenId",
          "type": "uint256"
        }
      ],
      "name": "Transfer",
      "type": "event"
    },
    {
      "inputs": [
        {
          "internalType": "address",
          "name": "to",
          "type": "address"
        },
        {
          "internalType": "uint256",
          "name": "tokenId",
          "type": "uint256"
        }
      ],
      "name": "approve",
      "outputs": [],
      "stateMutability": "nonpayable",
      "type": "function"
    },
    {
      "inputs": [
        {
          "internalType": "address",
          "name": "owner",
          "type": "address"
        }
      ],
      "name": "balanceOf",
      "outputs": [
        {
          "internalType": "uint256",
          "name": "",
          "type": "uint256"
        }
      ],
      "stateMutability": "view",
      "type": "function"
    },
    {
      "inputs": [],
      "name": "baseTokenURI",
      "outputs": [
        {
          "internalType": "string",
          "name": "",
          "type": "string"
        }
      ],
      "stateMutability": "view",
      "type": "function"
    },
    {
      "inputs": [
        {
          "internalType": "uint256",
          "name": "tokenId",
          "type": "uint256"
        }
      ],
      "name": "burn",
      "outputs": [],
      "stateMutability": "nonpayable",
      "type": "function"
    },
    {
      "inputs": [
        {
          "internalType": "uint256",
          "name": "tokenId",
          "type": "uint256"
        }
      ],
      "name": "getApproved",
      "outputs": [
        {
          "internalType": "address",
          "name": "",
          "type": "address"
        }
      ],
      "stateMutability": "view",
      "type": "function"
    },
    {
      "inputs": [
        {
          "internalType": "address",
          "name": "owner",
          "type": "address"
        },
        {
          "internalType": "address",
          "name": "operator",
          "type": "address"
        }
      ],
      "name": "isApprovedForAll",
      "outputs": [
        {
          "internalType": "bool",
          "name": "",
          "type": "bool"
        }
      ],
      "stateMutability": "view",
      "type": "function"
    },
    {
      "inputs": [
        {
          "internalType": "address",
          "name": "_recipient",
          "type": "address"
        }
      ],
      "name": "mint",
      "outputs": [
        {
          "internalType": "uint256",
          "name": "",
          "type": "uint256"
        }
      ],
      "stateMutability": "payable",
      "type": "function"
    },
    {
      "inputs": [],
      "name": "mintPrice",
      "outputs": [
        {
          "internalType": "uint256",
          "name": "",
          "type": "uint256"
        }
      ],
      "stateMutability": "view",
      "type": "function"
    },
    {
      "inputs": [],
      "name": "name",
      "outputs": [
        {
          "internalType": "string",
          "name": "",
          "type": "string"
        }
      ],
      "stateMutability": "view",
      "type": "function"
    },
    {
      "inputs": [],
      "name": "owner",
      "outputs": [
        {
          "internalType": "address",
          "name": "",
          "type": "address"
        }
      ],
      "stateMutability": "view",
      "type": "function"
    },
    {
      "inputs": [
        {
          "internalType": "uint256",
          "name": "tokenId",
          "type": "uint256"
        }
      ],
      "name": "ownerOf",
      "outputs": [
        {
          "internalType": "address",
          "name": "",
          "type": "address"
        }
      ],
      "stateMutability": "view",
      "type": "function"
    },
    {
      "inputs": [],
      "name": "renounceOwnership",
      "outputs": [],
      "stateMutability": "nonpayable",
      "type": "function"
    },
    {
      "inputs": [
        {
          "internalType": "address",
          "name": "from",
          "type": "address"
        },
        {
          "internalType": "address",
          "name": "to",
          "type": "address"
        },
        {
          "internalType": "uint256",
          "name": "tokenId",
          "type": "uint256"
        }
      ],
      "name": "safeTransferFrom",
      "outputs": [],
      "stateMutability": "nonpayable",
      "type": "function"
    },
    {
      "inputs": [
        {
          "internalType": "address",
          "name": "from",
          "type": "address"
        },
        {
          "internalType": "address",
          "name": "to",
          "type": "address"
        },
        {
          "internalType": "uint256",
          "name": "tokenId",
          "type": "uint256"
        },
        {
          "internalType": "bytes",
          "name": "data",
          "type": "bytes"
        }
      ],
      "name": "safeTransferFrom",
      "outputs": [],
      "stateMutability": "nonpayable",
      "type": "function"
    },
    {
      "inputs": [
        {
          "internalType": "address",
          "name": "operator",
          "type": "address"
        },
        {
          "internalType": "bool",
          "name": "approved",
          "type": "bool"
        }
      ],
      "name": "setApprovalForAll",
      "outputs": [],
      "stateMutability": "nonpayable",
      "type": "function"
    },
    {
      "inputs": [],
      "name": "supply",
      "outputs": [
        {
          "internalType": "uint256",
          "name": "",
          "type": "uint256"
        }
      ],
      "stateMutability": "view",
      "type": "function"
    },
    {
      "inputs": [
        {
          "internalType": "bytes4",
          "name": "interfaceId",
          "type": "bytes4"
        }
      ],
      "name": "supportsInterface",
      "outputs": [
        {
          "internalType": "bool",
          "name": "",
          "type": "bool"
        }
      ],
      "stateMutability": "view",
      "type": "function"
    },
    {
      "inputs": [],
      "name": "symbol",
      "outputs": [
        {
          "internalType": "string",
          "name": "",
          "type": "string"
        }
      ],
      "stateMutability": "view",
      "type": "function"
    },
    {
      "inputs": [],
      "name": "tokenIds",
      "outputs": [
        {
          "internalType": "uint256",
          "name": "",
          "type": "uint256"
        }
      ],
      "stateMutability": "view",
      "type": "function"
    },
    {
      "inputs": [
        {
          "internalType": "uint256",
          "name": "tokenId",
          "type": "uint256"
        }
      ],
      "name": "tokenURI",
      "outputs": [
        {
          "internalType": "string",
          "name": "",
          "type": "string"
        }
      ],
      "stateMutability": "view",
      "type": "function"
    },
    {
      "inputs": [
        {
          "internalType": "address",
          "name": "from",
          "type": "address"
        },
        {
          "internalType": "address",
          "name": "to",
          "type": "address"
        },
        {
          "internalType": "uint256",
          "name": "tokenId",
          "type": "uint256"
        }
      ],
      "name": "transferFrom",
      "outputs": [],
      "stateMutability": "nonpayable",
      "type": "function"
    },
    {
      "inputs": [
        {
          "internalType": "address",
          "name": "newOwner",
          "type": "address"
        }
      ],
      "name": "transferOwnership",
      "outputs": [],
      "stateMutability": "nonpayable",
      "type": "function"
    },
    {
      "inputs": [
        {
          "internalType": "string",
          "name": "_baseTokenURI",
          "type": "string"
        }
      ],
      "name": "updateBaseTokenURI",
      "outputs": [
        {
          "internalType": "string",
          "name": "",
          "type": "string"
        }
      ],
      "stateMutability": "nonpayable",
      "type": "function"
    },
    {
      "inputs": [
        {
          "internalType": "uint256",
          "name": "_price",
          "type": "uint256"
        }
      ],
      "name": "updateMintPrice",
      "outputs": [
        {
          "internalType": "uint256",
          "name": "",
          "type": "uint256"
        }
      ],
      "stateMutability": "nonpayable",
      "type": "function"
    },
    {
      "inputs": [
        {
          "internalType": "uint256",
          "name": "_supply",
          "type": "uint256"
        }
      ],
      "name": "updateSupply",
      "outputs": [
        {
          "internalType": "uint256",
          "name": "",
          "type": "uint256"
        }
      ],
      "stateMutability": "nonpayable",
      "type": "function"
    },
    {
      "inputs": [],
      "name": "withdraw",
      "outputs": [
        {
          "internalType": "bool",
          "name": "",
          "type": "bool"
        }
      ],
      "stateMutability": "payable",
      "type": "function"
    }
  ],
  "bytecode": "0x60806040526000600855674563918244f40000600955612710600a553480156200002857600080fd5b5060405162001e8d38038062001e8d8339810160408190526200004b9162000143565b806040518060400160405280600a8152602001695465737445524337323160b01b815250604051806040016040528060048152602001631513919560e21b81525081600090816200009d91906200021a565b506001620000ac82826200021a565b5050506001600160a01b038116620000de57604051631e4fbdf760e01b81526000600482015260240160405180910390fd5b620000e981620000f1565b5050620002e6565b600780546001600160a01b038381166001600160a01b0319831681179093556040519116919082907f8be0079c531659141344cd1fd0a4f28419497f9722a3daafe3b4186f6b6457e090600090a35050565b6000602082840312156200015657600080fd5b81516001600160a01b03811681146200016e57600080fd5b9392505050565b634e487b7160e01b600052604160045260246000fd5b600181811c90821680620001a057607f821691505b602082108103620001c157634e487b7160e01b600052602260045260246000fd5b50919050565b601f8211156200021557600081815260208120601f850160051c81016020861015620001f05750805b601f850160051c820191505b818110156200021157828155600101620001fc565b5050505b505050565b81516001600160401b0381111562000236576200023662000175565b6200024e816200024784546200018b565b84620001c7565b602080601f8311600181146200028657600084156200026d5750858301515b600019600386901b1c1916600185901b17855562000211565b600085815260208120601f198616915b82811015620002b75788860151825594840194600190910190840162000296565b5085821015620002d65787850151600019600388901b60f8161c191681555b5050505050600190811b01905550565b611b9780620002f66000396000f3fe6080604052600436106101a05760003560e01c80636a627842116100e157806395d89b411161008a578063c87b56dd11610064578063c87b56dd14610449578063d547cfb714610469578063e985e9c51461047e578063f2fde38b146104c757600080fd5b806395d89b41146103f4578063a22cb46514610409578063b88d4fde1461042957600080fd5b8063714cff56116100bb578063714cff56146103ab578063715018a6146103c15780638da5cb5b146103d657600080fd5b80636a627842146103585780636bd080491461036b57806370a082311461038b57600080fd5b806323b872dd1161014e57806342966c681161012857806342966c68146102e25780636352211e14610302578063655391c9146103225780636817c76c1461034257600080fd5b806323b872dd1461029a5780633ccfd60b146102ba57806342842e0e146102c257600080fd5b806306fdde031161017f57806306fdde031461021e578063081812fc14610240578063095ea7b31461027857600080fd5b8062728e46146101a557806301ffc9a7146101d8578063047fc9aa14610208575b600080fd5b3480156101b157600080fd5b506101c56101c03660046115ba565b6104e7565b6040519081526020015b60405180910390f35b3480156101e457600080fd5b506101f86101f33660046115e9565b6104fe565b60405190151581526020016101cf565b34801561021457600080fd5b506101c5600a5481565b34801561022a57600080fd5b50610233610542565b6040516101cf919061165d565b34801561024c57600080fd5b5061026061025b3660046115ba565b6105d4565b6040516001600160a01b0390911681526020016101cf565b34801561028457600080fd5b50610298610293366004611687565b6105fd565b005b3480156102a657600080fd5b506102986102b53660046116b1565b61060c565b6101f86106b5565b3480156102ce57600080fd5b506102986102dd3660046116b1565b6107d5565b3480156102ee57600080fd5b506102986102fd3660046115ba565b6107f5565b34801561030e57600080fd5b5061026061031d3660046115ba565b610887565b34801561032e57600080fd5b5061023361033d366004611779565b610892565b34801561034e57600080fd5b506101c560095481565b6101c56103663660046117c2565b61093b565b34801561037757600080fd5b506101c56103863660046115ba565b610a0b565b34801561039757600080fd5b506101c56103a63660046117c2565b610a95565b3480156103b757600080fd5b506101c560085481565b3480156103cd57600080fd5b50610298610af6565b3480156103e257600080fd5b506007546001600160a01b0316610260565b34801561040057600080fd5b50610233610b0a565b34801561041557600080fd5b506102986104243660046117dd565b610b19565b34801561043557600080fd5b50610298610444366004611819565b610b24565b34801561045557600080fd5b506102336104643660046115ba565b610b3c565b34801561047557600080fd5b50610233610c28565b34801561048a57600080fd5b506101f8610499366004611895565b6001600160a01b03918216600090815260056020908152604080832093909416825291909152205460ff1690565b3480156104d357600080fd5b506102986104e23660046117c2565b610cb6565b60006104f1610d0a565b506009819055805b919050565b60006001600160e01b031982167f4906490600000000000000000000000000000000000000000000000000000000148061053c575061053c82610d50565b92915050565b606060008054610551906118c8565b80601f016020809104026020016040519081016040528092919081815260200182805461057d906118c8565b80156105ca5780601f1061059f576101008083540402835291602001916105ca565b820191906000526020600020905b8154815290600101906020018083116105ad57829003601f168201915b5050505050905090565b60006105df82610deb565b506000828152600460205260409020546001600160a01b031661053c565b610608828233610e24565b5050565b6001600160a01b03821661063b57604051633250574960e11b8152600060048201526024015b60405180910390fd5b6000610648838333610e31565b9050836001600160a01b0316816001600160a01b0316146106af576040517f64283d7b0000000000000000000000000000000000000000000000000000000081526001600160a01b0380861660048301526024820184905282166044820152606401610632565b50505050565b60006106bf610d0a565b6007546001600160a01b031633146107195760405162461bcd60e51b815260206004820152600c60248201527f556e617574686f72697a656400000000000000000000000000000000000000006044820152606401610632565b600061072d6007546001600160a01b031690565b6001600160a01b03164760405160006040518083038185875af1925050503d8060008114610777576040519150601f19603f3d011682016040523d82523d6000602084013e61077c565b606091505b50509050806107cd5760405162461bcd60e51b815260206004820152601060248201527f5769746864726177206661696c65642e000000000000000000000000000000006044820152606401610632565b600191505090565b6107f083838360405180602001604052806000815250610b24565b505050565b336107ff82610887565b6001600160a01b03161461087b5760405162461bcd60e51b815260206004820152602660248201527f4f6e6c7920746865206f776e6572206f6620746865204e46542063616e20627560448201527f726e2069742e00000000000000000000000000000000000000000000000000006064820152608401610632565b61088481610f37565b50565b600061053c82610deb565b606061089c610d0a565b600b6108a88382611948565b50600b80546108b6906118c8565b80601f01602080910402602001604051908101604052809291908181526020018280546108e2906118c8565b801561092f5780601f106109045761010080835404028352916020019161092f565b820191906000526020600020905b81548152906001019060200180831161091257829003601f168201915b50505050509050919050565b6000600954341461098e5760405162461bcd60e51b815260206004820152600e60248201527f35205155414920746f204d696e740000000000000000000000000000000000006044820152606401610632565b600854600a5481106109e25760405162461bcd60e51b815260206004820152600c60248201527f4e6f206d6f7265204e46547300000000000000000000000000000000000000006044820152606401610632565b6109ec8382610f72565b6001600860008282546109ff9190611a1e565b90915550909392505050565b6000610a15610d0a565b6008548211610a8c5760405162461bcd60e51b815260206004820152603660248201527f4e657720737570706c79206d7573742062652067726561746572207468616e2060448201527f63757272656e74206d696e74656420737570706c792e000000000000000000006064820152608401610632565b50600a81905590565b60006001600160a01b038216610ada576040517f89c62b6400000000000000000000000000000000000000000000000000000000815260006004820152602401610632565b506001600160a01b031660009081526003602052604090205490565b610afe610d0a565b610b086000610ff0565b565b606060018054610551906118c8565b61060833838361104f565b610b2f84848461060c565b6106af3385858585611107565b6060610b4782610887565b506000600b8054610b57906118c8565b80601f0160208091040260200160405190810160405280929190818152602001828054610b83906118c8565b8015610bd05780601f10610ba557610100808354040283529160200191610bd0565b820191906000526020600020905b815481529060010190602001808311610bb357829003601f168201915b505050505090508051600003610bf6575050604080516020810190915260008152919050565b80610c0084611232565b604051602001610c11929190611a31565b604051602081830303815290604052915050919050565b600b8054610c35906118c8565b80601f0160208091040260200160405190810160405280929190818152602001828054610c61906118c8565b8015610cae5780601f10610c8357610100808354040283529160200191610cae565b820191906000526020600020905b815481529060010190602001808311610c9157829003601f168201915b505050505081565b610cbe610d0a565b6001600160a01b038116610d01576040517f1e4fbdf700000000000000000000000000000000000000000000000000000000815260006004820152602401610632565b61088481610ff0565b6007546001600160a01b03163314610b08576040517f118cdaa7000000000000000000000000000000000000000000000000000000008152336004820152602401610632565b60006001600160e01b031982167f80ac58cd000000000000000000000000000000000000000000000000000000001480610db357506001600160e01b031982167f5b5e139f00000000000000000000000000000000000000000000000000000000145b8061053c57507f01ffc9a7000000000000000000000000000000000000000000000000000000006001600160e01b031983161461053c565b6000818152600260205260408120546001600160a01b03168061053c57604051637e27328960e01b815260048101849052602401610632565b6107f0838383600161136f565b6000828152600260205260408120546001600160a01b0390811690831615610e5e57610e5e8184866114ba565b6001600160a01b03811615610e9c57610e7b60008560008061136f565b6001600160a01b038116600090815260036020526040902080546000190190555b6001600160a01b03851615610ecb576001600160a01b0385166000908152600360205260409020805460010190555b600084815260026020526040808220805473ffffffffffffffffffffffffffffffffffffffff19166001600160a01b0389811691821790925591518793918516917fddf252ad1be2c89b69c2b068fc378daa952ba7f163c4a11628f55a4df523b3ef91a4949350505050565b6000610f466000836000610e31565b90506001600160a01b03811661060857604051637e27328960e01b815260048101839052602401610632565b6001600160a01b038216610f9c57604051633250574960e11b815260006004820152602401610632565b6000610faa83836000610e31565b90506001600160a01b038116156107f0576040517f73c6ac6e00000000000000000000000000000000000000000000000000000000815260006004820152602401610632565b600780546001600160a01b0383811673ffffffffffffffffffffffffffffffffffffffff19831681179093556040519116919082907f8be0079c531659141344cd1fd0a4f28419497f9722a3daafe3b4186f6b6457e090600090a35050565b6001600160a01b03821661109a576040517f5b08ba180000000000000000000000000000000000000000000000000000000081526001600160a01b0383166004820152602401610632565b6001600160a01b03838116600081815260056020908152604080832094871680845294825291829020805460ff191686151590811790915591519182527f17307eab39ab6107e8899845ad3d59bd9653f200f220920489ca2b5937696c31910160405180910390a3505050565b6001600160a01b0383163b1561122b57604051630a85bd0160e11b81526001600160a01b0384169063150b7a0290611149908890889087908790600401611a88565b6020604051808303816000875af1925050508015611184575060408051601f3d908101601f1916820190925261118191810190611ac4565b60015b6111ed573d8080156111b2576040519150601f19603f3d011682016040523d82523d6000602084013e6111b7565b606091505b5080516000036111e557604051633250574960e11b81526001600160a01b0385166004820152602401610632565b805160208201fd5b6001600160e01b03198116630a85bd0160e11b1461122957604051633250574960e11b81526001600160a01b0385166004820152602401610632565b505b5050505050565b60608160000361127557505060408051808201909152600181527f3000000000000000000000000000000000000000000000000000000000000000602082015290565b8160005b811561129f578061128981611ae1565b91506112989050600a83611b10565b9150611279565b60008167ffffffffffffffff8111156112ba576112ba6116ed565b6040519080825280601f01601f1916602001820160405280156112e4576020820181803683370190505b5090505b8415611367576112f9600183611b24565b9150611306600a86611b37565b611311906030611a1e565b60f81b81838151811061132657611326611b4b565b60200101907effffffffffffffffffffffffffffffffffffffffffffffffffffffffffffff1916908160001a905350611360600a86611b10565b94506112e8565b949350505050565b808061138357506001600160a01b03821615155b1561147d57600061139384610deb565b90506001600160a01b038316158015906113bf5750826001600160a01b0316816001600160a01b031614155b80156113f157506001600160a01b0380821660009081526005602090815260408083209387168352929052205460ff16155b15611433576040517fa9fbf51f0000000000000000000000000000000000000000000000000000000081526001600160a01b0384166004820152602401610632565b811561147b5783856001600160a01b0316826001600160a01b03167f8c5be1e5ebec7d5bd14f71427d1e84f3dd0314c0f7b2291e5b200ac8c7c3b92560405160405180910390a45b505b50506000908152600460205260409020805473ffffffffffffffffffffffffffffffffffffffff19166001600160a01b0392909216919091179055565b6114c5838383611537565b6107f0576001600160a01b0383166114f357604051637e27328960e01b815260048101829052602401610632565b6040517f177e802f0000000000000000000000000000000000000000000000000000000081526001600160a01b038316600482015260248101829052604401610632565b60006001600160a01b038316158015906113675750826001600160a01b0316846001600160a01b0316148061159157506001600160a01b0380851660009081526005602090815260408083209387168352929052205460ff165b806113675750506000908152600460205260409020546001600160a01b03908116911614919050565b6000602082840312156115cc57600080fd5b5035919050565b6001600160e01b03198116811461088457600080fd5b6000602082840312156115fb57600080fd5b8135611606816115d3565b9392505050565b60005b83811015611628578181015183820152602001611610565b50506000910152565b6000815180845261164981602086016020860161160d565b601f01601f19169290920160200192915050565b6020815260006116066020830184611631565b80356001600160a01b03811681146104f957600080fd5b6000806040838503121561169a57600080fd5b6116a383611670565b946020939093013593505050565b6000806000606084860312156116c657600080fd5b6116cf84611670565b92506116dd60208501611670565b9150604084013590509250925092565b634e487b7160e01b600052604160045260246000fd5b600067ffffffffffffffff8084111561171e5761171e6116ed565b604051601f8501601f19908116603f01168101908282118183101715611746576117466116ed565b8160405280935085815286868601111561175f57600080fd5b858560208301376000602087830101525050509392505050565b60006020828403121561178b57600080fd5b813567ffffffffffffffff8111156117a257600080fd5b8201601f810184136117b357600080fd5b61136784823560208401611703565b6000602082840312156117d457600080fd5b61160682611670565b600080604083850312156117f057600080fd5b6117f983611670565b91506020830135801515811461180e57600080fd5b809150509250929050565b6000806000806080858703121561182f57600080fd5b61183885611670565b935061184660208601611670565b925060408501359150606085013567ffffffffffffffff81111561186957600080fd5b8501601f8101871361187a57600080fd5b61188987823560208401611703565b91505092959194509250565b600080604083850312156118a857600080fd5b6118b183611670565b91506118bf60208401611670565b90509250929050565b600181811c908216806118dc57607f821691505b6020821081036118fc57634e487b7160e01b600052602260045260246000fd5b50919050565b601f8211156107f057600081815260208120601f850160051c810160208610156119295750805b601f850160051c820191505b8181101561122957828155600101611935565b815167ffffffffffffffff811115611962576119626116ed565b6119768161197084546118c8565b84611902565b602080601f8311600181146119ab57600084156119935750858301515b600019600386901b1c1916600185901b178555611229565b600085815260208120601f198616915b828110156119da578886015182559484019460019091019084016119bb565b50858210156119f85787850151600019600388901b60f8161c191681555b5050505050600190811b01905550565b634e487b7160e01b600052601160045260246000fd5b8082018082111561053c5761053c611a08565b60008351611a4381846020880161160d565b835190830190611a5781836020880161160d565b7f2e6a736f6e0000000000000000000000000000000000000000000000000000009101908152600501949350505050565b60006001600160a01b03808716835280861660208401525083604083015260806060830152611aba6080830184611631565b9695505050505050565b600060208284031215611ad657600080fd5b8151611606816115d3565b600060018201611af357611af3611a08565b5060010190565b634e487b7160e01b600052601260045260246000fd5b600082611b1f57611b1f611afa565b500490565b8181038181111561053c5761053c611a08565b600082611b4657611b46611afa565b500690565b634e487b7160e01b600052603260045260246000fdfea264697066735822122071dc9e473c5fa0fe54374d2b417437622625cbcd99662a763314ef27423cd09264736f6c63430008140033",
  "linkReferences": {},
  "deployedLinkReferences": {}
}